{
  "contractName": "CryptoFantom",
  "abi": [
    {
      "inputs": [
        {
          "internalType": "string",
          "name": "_tokenURIBase",
          "type": "string"
        }
      ],
      "stateMutability": "nonpayable",
      "type": "constructor"
    },
    {
      "anonymous": false,
      "inputs": [
        {
          "indexed": true,
          "internalType": "address",
          "name": "_owner",
          "type": "address"
        },
        {
          "indexed": true,
          "internalType": "address",
          "name": "_approved",
          "type": "address"
        },
        {
          "indexed": true,
          "internalType": "uint256",
          "name": "_tokenId",
          "type": "uint256"
        }
      ],
      "name": "Approval",
      "type": "event"
    },
    {
      "anonymous": false,
      "inputs": [
        {
          "indexed": true,
          "internalType": "address",
          "name": "_owner",
          "type": "address"
        },
        {
          "indexed": true,
          "internalType": "address",
          "name": "_operator",
          "type": "address"
        },
        {
          "indexed": false,
          "internalType": "bool",
          "name": "_approved",
          "type": "bool"
        }
      ],
      "name": "ApprovalForAll",
      "type": "event"
    },
    {
      "anonymous": false,
      "inputs": [
        {
          "indexed": true,
          "internalType": "address",
          "name": "_from",
          "type": "address"
        },
        {
          "indexed": true,
          "internalType": "address",
          "name": "_to",
          "type": "address"
        },
        {
          "indexed": true,
          "internalType": "uint256",
          "name": "_tokenId",
          "type": "uint256"
        }
      ],
      "name": "Transfer",
      "type": "event"
    },
    {
      "inputs": [],
      "name": "admin",
      "outputs": [
        {
          "internalType": "address",
          "name": "",
          "type": "address"
        }
      ],
      "stateMutability": "view",
      "type": "function",
      "constant": true
    },
    {
      "inputs": [
        {
          "internalType": "address",
          "name": "_approved",
          "type": "address"
        },
        {
          "internalType": "uint256",
          "name": "_tokenId",
          "type": "uint256"
        }
      ],
      "name": "approve",
      "outputs": [],
      "stateMutability": "payable",
      "type": "function",
      "payable": true
    },
    {
      "inputs": [
        {
          "internalType": "address",
          "name": "_owner",
          "type": "address"
        }
      ],
      "name": "balanceOf",
      "outputs": [
        {
          "internalType": "uint256",
          "name": "",
          "type": "uint256"
        }
      ],
      "stateMutability": "view",
      "type": "function",
      "constant": true
    },
    {
      "inputs": [
        {
          "internalType": "uint256",
          "name": "",
          "type": "uint256"
        }
      ],
      "name": "fantoms",
      "outputs": [
        {
          "internalType": "uint256",
          "name": "id",
          "type": "uint256"
        },
        {
          "internalType": "uint256",
          "name": "generation",
          "type": "uint256"
        },
        {
          "internalType": "uint256",
          "name": "geneA",
          "type": "uint256"
        },
        {
          "internalType": "uint256",
          "name": "geneB",
          "type": "uint256"
        }
      ],
      "stateMutability": "view",
      "type": "function",
      "constant": true
    },
    {
      "inputs": [
        {
          "internalType": "uint256",
          "name": "_tokenId",
          "type": "uint256"
        }
      ],
      "name": "getApproved",
      "outputs": [
        {
          "internalType": "address",
          "name": "",
          "type": "address"
        }
      ],
      "stateMutability": "view",
      "type": "function",
      "constant": true
    },
    {
      "inputs": [
        {
          "internalType": "address",
          "name": "_owner",
          "type": "address"
        },
        {
          "internalType": "address",
          "name": "_operator",
          "type": "address"
        }
      ],
      "name": "isApprovedForAll",
      "outputs": [
        {
          "internalType": "bool",
          "name": "",
          "type": "bool"
        }
      ],
      "stateMutability": "view",
      "type": "function",
      "constant": true
    },
    {
      "inputs": [],
      "name": "nextId",
      "outputs": [
        {
          "internalType": "uint256",
          "name": "",
          "type": "uint256"
        }
      ],
      "stateMutability": "view",
      "type": "function",
      "constant": true
    },
    {
      "inputs": [
        {
          "internalType": "uint256",
          "name": "_tokenId",
          "type": "uint256"
        }
      ],
      "name": "ownerOf",
      "outputs": [
        {
          "internalType": "address",
          "name": "",
          "type": "address"
        }
      ],
      "stateMutability": "view",
      "type": "function",
      "constant": true
    },
    {
      "inputs": [
        {
          "internalType": "address",
          "name": "_from",
          "type": "address"
        },
        {
          "internalType": "address",
          "name": "_to",
          "type": "address"
        },
        {
          "internalType": "uint256",
          "name": "_tokenId",
          "type": "uint256"
        }
      ],
      "name": "safeTransferFrom",
      "outputs": [],
      "stateMutability": "payable",
      "type": "function",
      "payable": true
    },
    {
      "inputs": [
        {
          "internalType": "address",
          "name": "_from",
          "type": "address"
        },
        {
          "internalType": "address",
          "name": "_to",
          "type": "address"
        },
        {
          "internalType": "uint256",
          "name": "_tokenId",
          "type": "uint256"
        },
        {
          "internalType": "bytes",
          "name": "data",
          "type": "bytes"
        }
      ],
      "name": "safeTransferFrom",
      "outputs": [],
      "stateMutability": "payable",
      "type": "function",
      "payable": true
    },
    {
      "inputs": [
        {
          "internalType": "address",
          "name": "_operator",
          "type": "address"
        },
        {
          "internalType": "bool",
          "name": "_approved",
          "type": "bool"
        }
      ],
      "name": "setApprovalForAll",
      "outputs": [],
      "stateMutability": "nonpayable",
      "type": "function"
    },
    {
      "inputs": [
        {
          "internalType": "uint256",
          "name": "_tokenId",
          "type": "uint256"
        }
      ],
      "name": "tokenURI",
      "outputs": [
        {
          "internalType": "string",
          "name": "",
          "type": "string"
        }
      ],
      "stateMutability": "view",
      "type": "function",
      "constant": true
    },
    {
      "inputs": [],
      "name": "tokenURIBase",
      "outputs": [
        {
          "internalType": "string",
          "name": "",
          "type": "string"
        }
      ],
      "stateMutability": "view",
      "type": "function",
      "constant": true
    },
    {
      "inputs": [
        {
          "internalType": "address",
          "name": "_from",
          "type": "address"
        },
        {
          "internalType": "address",
          "name": "_to",
          "type": "address"
        },
        {
          "internalType": "uint256",
          "name": "_tokenId",
          "type": "uint256"
        }
      ],
      "name": "transferFrom",
      "outputs": [],
      "stateMutability": "payable",
      "type": "function",
      "payable": true
    },
    {
      "inputs": [],
      "name": "getAllFantoms",
      "outputs": [
        {
          "components": [
            {
              "internalType": "uint256",
              "name": "id",
              "type": "uint256"
            },
            {
              "internalType": "uint256",
              "name": "generation",
              "type": "uint256"
            },
            {
              "internalType": "uint256",
              "name": "geneA",
              "type": "uint256"
            },
            {
              "internalType": "uint256",
              "name": "geneB",
              "type": "uint256"
            }
          ],
          "internalType": "struct CryptoFantom.Fantom[]",
          "name": "",
          "type": "tuple[]"
        }
      ],
      "stateMutability": "view",
      "type": "function",
      "constant": true
    },
    {
      "inputs": [
        {
          "internalType": "address",
          "name": "owner",
          "type": "address"
        }
      ],
      "name": "getAllFantomsOf",
      "outputs": [
        {
          "components": [
            {
              "internalType": "uint256",
              "name": "id",
              "type": "uint256"
            },
            {
              "internalType": "uint256",
              "name": "generation",
              "type": "uint256"
            },
            {
              "internalType": "uint256",
              "name": "geneA",
              "type": "uint256"
            },
            {
              "internalType": "uint256",
              "name": "geneB",
              "type": "uint256"
            }
          ],
          "internalType": "struct CryptoFantom.Fantom[]",
          "name": "",
          "type": "tuple[]"
        }
      ],
      "stateMutability": "view",
      "type": "function",
      "constant": true
    },
    {
      "inputs": [
        {
          "internalType": "uint256",
          "name": "fantom1Id",
          "type": "uint256"
        },
        {
          "internalType": "uint256",
          "name": "fantom2Id",
          "type": "uint256"
        }
      ],
      "name": "breed",
      "outputs": [],
      "stateMutability": "nonpayable",
      "type": "function"
    },
    {
      "inputs": [],
      "name": "mint",
      "outputs": [],
      "stateMutability": "nonpayable",
      "type": "function"
    }
  ],
  "bytecode": "0x60806040523480156200001157600080fd5b50604051620017ef380380620017ef833981016040819052620000349162000112565b805181906200004b90600590602084019062000066565b5050600880546001600160a01b0319163317905550620001d1565b828054600181600116156101000203166002900490600052602060002090601f0160209004810192826200009e5760008555620000e9565b82601f10620000b957805160ff1916838001178555620000e9565b82800160010185558215620000e9579182015b82811115620000e9578251825591602001919060010190620000cc565b50620000f7929150620000fb565b5090565b5b80821115620000f75760008155600101620000fc565b6000602080838503121562000125578182fd5b82516001600160401b03808211156200013c578384fd5b818501915085601f83011262000150578384fd5b8151818111156200015d57fe5b604051601f8201601f19168101850183811182821017156200017b57fe5b604052818152838201850188101562000192578586fd5b8592505b81831015620001b5578383018501518184018601529184019162000196565b81831115620001c657858583830101525b979650505050505050565b61160e80620001e16000396000f3fe6080604052600436106101295760003560e01c80636352211e116100a5578063c8257fb611610074578063d9ecad7b11610059578063d9ecad7b146102fd578063e985e9c51461031d578063f851a4401461034a57610129565b8063c8257fb6146102c8578063c87b56dd146102dd57610129565b80636352211e1461025557806370a0823114610275578063a22cb46514610295578063b88d4fde146102b557610129565b806323b872dd116100fc57806342842e0e116100e157806342842e0e146101f3578063471b6dff1461020657806361b8ce8c1461023357610129565b806323b872dd146101be578063261220a3146101d157610129565b806304ee47651461012e578063081812fc14610167578063095ea7b3146101945780631249c58b146101a9575b600080fd5b34801561013a57600080fd5b5061014e610149366004611379565b61035f565b60405161015e9493929190611595565b60405180910390f35b34801561017357600080fd5b50610187610182366004611379565b610386565b60405161015e91906113c0565b6101a76101a2366004611350565b6103b1565b005b3480156101b557600080fd5b506101a76104c5565b6101a76101cc366004611245565b6105ac565b3480156101dd57600080fd5b506101e66105bc565b60405161015e9190611450565b6101a7610201366004611245565b610668565b34801561021257600080fd5b506102266102213660046111f2565b610683565b60405161015e91906113e1565b34801561023f57600080fd5b506102486107eb565b60405161015e919061158c565b34801561026157600080fd5b50610187610270366004611379565b6107f1565b34801561028157600080fd5b506102486102903660046111f2565b610819565b3480156102a157600080fd5b506101a76102b0366004611316565b610841565b6101a76102c3366004611280565b6108da565b3480156102d457600080fd5b50610226610923565b3480156102e957600080fd5b506101e66102f8366004611379565b6109f4565b34801561030957600080fd5b506101a7610318366004611391565b610a74565b34801561032957600080fd5b5061033d610338366004611213565b610c2d565b60405161015e9190611445565b34801561035657600080fd5b50610187610c68565b60066020526000908152604090208054600182015460028301546003909301549192909184565b60008181526002602052604090205473ffffffffffffffffffffffffffffffffffffffff165b919050565b60008181526001602052604090205473ffffffffffffffffffffffffffffffffffffffff1633811461044457604080517f08c379a000000000000000000000000000000000000000000000000000000000815260206004820152600e60248201527f4e6f7420617574686f72697a6564000000000000000000000000000000000000604482015290519081900360640190fd5b60008281526002602052604080822080547fffffffffffffffffffffffff00000000000000000000000000000000000000001673ffffffffffffffffffffffffffffffffffffffff87811691821790925591518593918516917f8c5be1e5ebec7d5bd14f71427d1e84f3dd0314c0f7b2291e5b200ac8c7c3b92591a4505050565b60085473ffffffffffffffffffffffffffffffffffffffff16331461051f576040517f08c379a0000000000000000000000000000000000000000000000000000000008152600401610516906114c1565b60405180910390fd5b6040518060800160405280600754815260200160018152602001610543600a610c84565b8152602001610552600a610c84565b815250600660006007548152602001908152602001600020600082015181600001556020820151816001015560408201518160020155606082015181600301559050506105a133600754610cc1565b600780546001019055565b6105b7838383610de4565b505050565b6005805460408051602060026001851615610100027fffffffffffffffffffffffffffffffffffffffffffffffffffffffffffffffff0190941693909304601f810184900484028201840190925281815292918301828280156106605780601f1061063557610100808354040283529160200191610660565b820191906000526020600020905b81548152906001019060200180831161064357829003601f168201915b505050505081565b6105b783838360405180602001604052806000815250610fa8565b60606000805b6007548110156106de578373ffffffffffffffffffffffffffffffffffffffff166106b3826107f1565b73ffffffffffffffffffffffffffffffffffffffff1614156106d6576001909101905b600101610689565b5060008167ffffffffffffffff811180156106f857600080fd5b5060405190808252806020026020018201604052801561073257816020015b61071f6111a6565b8152602001906001900390816107175790505b50905060005b81518110156107e3578473ffffffffffffffffffffffffffffffffffffffff16610761826107f1565b73ffffffffffffffffffffffffffffffffffffffff1614156107db57600660008281526020019081526020016000206040518060800160405290816000820154815260200160018201548152602001600282015481526020016003820154815250508282815181106107cf57fe5b60200260200101819052505b600101610738565b509392505050565b60075481565b60009081526001602052604090205473ffffffffffffffffffffffffffffffffffffffff1690565b73ffffffffffffffffffffffffffffffffffffffff1660009081526020819052604090205490565b33600081815260036020908152604080832073ffffffffffffffffffffffffffffffffffffffff87168085529083529281902080547fffffffffffffffffffffffffffffffffffffffffffffffffffffffffffffff0016861515908117909155815190815290519293927f17307eab39ab6107e8899845ad3d59bd9653f200f220920489ca2b5937696c31929181900390910190a35050565b61091c85858585858080601f016020809104026020016040519081016040528093929190818152602001838380828437600092019190915250610fa892505050565b5050505050565b6060600060075467ffffffffffffffff8111801561094057600080fd5b5060405190808252806020026020018201604052801561097a57816020015b6109676111a6565b81526020019060019003908161095f5790505b50905060005b81518110156109ee57600660008281526020019081526020016000206040518060800160405290816000820154815260200160018201548152602001600282015481526020016003820154815250508282815181106109db57fe5b6020908102919091010152600101610980565b50905090565b60606005826040516020018083805460018160011615610100020316600290048015610a575780601f10610a35576101008083540402835291820191610a57565b820191906000526020600020905b815481529060010190602001808311610a43575b505091825250604080518083038152602090920190529392505050565b60075482108015610a86575060075481105b610abc576040517f08c379a000000000000000000000000000000000000000000000000000000000815260040161051690611555565b600082815260066020526040808220838352912033610ada856107f1565b73ffffffffffffffffffffffffffffffffffffffff16148015610b1a575033610b02846107f1565b73ffffffffffffffffffffffffffffffffffffffff16145b610b50576040517f08c379a0000000000000000000000000000000000000000000000000000000008152600401610516906114f8565b60008160010154836001015411610b6b578160010154610b71565b82600101545b905060006001610b816004610c84565b11610b90578260020154610b96565b83600201545b905060006001610ba66004610c84565b11610bb5578360030154610bbb565b84600301545b6040805160808101825260078054808352600180890160208086019182528587018a815260608701898152600095865260069092529690932094518555519084015592516002830155915160039091015554909150610c1b903390610cc1565b50506007805460010190555050505050565b73ffffffffffffffffffffffffffffffffffffffff918216600090815260036020908152604080832093909416825291909152205460ff1690565b60085473ffffffffffffffffffffffffffffffffffffffff1681565b6000814244604051602001610c9a9291906113b2565b6040516020818303038152906040528051906020012060001c81610cba57fe5b0692915050565b60008181526001602052604090205473ffffffffffffffffffffffffffffffffffffffff1615610d5257604080517f08c379a000000000000000000000000000000000000000000000000000000000815260206004820152601a60248201527f5468697320746f6b656e20616c72656164792065786973742e2e000000000000604482015290519081900360640190fd5b600081815260016020818152604080842080547fffffffffffffffffffffffff00000000000000000000000000000000000000001673ffffffffffffffffffffffffffffffffffffffff881690811790915580855291849052808420805490930190925590518392907fddf252ad1be2c89b69c2b068fc378daa952ba7f163c4a11628f55a4df523b3ef908290a45050565b600081815260016020526040902054819073ffffffffffffffffffffffffffffffffffffffff1633811480610e3c575060008281526002602052604090205473ffffffffffffffffffffffffffffffffffffffff1633145b80610e7c575073ffffffffffffffffffffffffffffffffffffffff8116600090815260036020908152604080832033845290915290205460ff1615156001145b610ee757604080517f08c379a000000000000000000000000000000000000000000000000000000000815260206004820152601760248201527f5472616e73666572206e6f7420617574686f72697a6564000000000000000000604482015290519081900360640190fd5b73ffffffffffffffffffffffffffffffffffffffff80861660008181526020818152604080832080547fffffffffffffffffffffffffffffffffffffffffffffffffffffffffffffffff0190559388168083528483208054600190810190915588845290915283822080547fffffffffffffffffffffffff000000000000000000000000000000000000000016821790559251869392917fddf252ad1be2c89b69c2b068fc378daa952ba7f163c4a11628f55a4df523b3ef91a45050505050565b610fb3848484610de4565b610fd28373ffffffffffffffffffffffffffffffffffffffff166111a0565b1561119a5760008373ffffffffffffffffffffffffffffffffffffffff1663150b7a02338786866040518563ffffffff1660e01b8152600401808573ffffffffffffffffffffffffffffffffffffffff1681526020018473ffffffffffffffffffffffffffffffffffffffff16815260200183815260200180602001828103825283818151815260200191508051906020019080838360005b8381101561108357818101518382015260200161106b565b50505050905090810190601f1680156110b05780820380516001836020036101000a031916815260200191505b5095505050505050602060405180830381600087803b1580156110d257600080fd5b505af11580156110e6573d6000803e3d6000fd5b505050506040513d60208110156110fc57600080fd5b505190507fffffffff0000000000000000000000000000000000000000000000000000000081167f150b7a02000000000000000000000000000000000000000000000000000000001461091c576040517f08c379a00000000000000000000000000000000000000000000000000000000081526004018080602001828103825260288152602001806115b16028913960400191505060405180910390fd5b50505050565b3b151590565b6040518060800160405280600081526020016000815260200160008152602001600081525090565b803573ffffffffffffffffffffffffffffffffffffffff811681146103ac57600080fd5b600060208284031215611203578081fd5b61120c826111ce565b9392505050565b60008060408385031215611225578081fd5b61122e836111ce565b915061123c602084016111ce565b90509250929050565b600080600060608486031215611259578081fd5b611262846111ce565b9250611270602085016111ce565b9150604084013590509250925092565b600080600080600060808688031215611297578081fd5b6112a0866111ce565b94506112ae602087016111ce565b935060408601359250606086013567ffffffffffffffff808211156112d1578283fd5b818801915088601f8301126112e4578283fd5b8135818111156112f2578384fd5b896020828501011115611303578384fd5b9699959850939650602001949392505050565b60008060408385031215611328578182fd5b611331836111ce565b915060208301358015158114611345578182fd5b809150509250929050565b60008060408385031215611362578182fd5b61136b836111ce565b946020939093013593505050565b60006020828403121561138a578081fd5b5035919050565b600080604083850312156113a3578182fd5b50508035926020909101359150565b918252602082015260400190565b73ffffffffffffffffffffffffffffffffffffffff91909116815260200190565b602080825282518282018190526000919060409081850190868401855b82811015611438578151805185528681015187860152858101518686015260609081015190850152608090930192908501906001016113fe565b5091979650505050505050565b901515815260200190565b6000602080835283518082850152825b8181101561147c57858101830151858201604001528201611460565b8181111561148d5783604083870101525b50601f017fffffffffffffffffffffffffffffffffffffffffffffffffffffffffffffffe016929092016040019392505050565b6020808252600a908201527f6f6e6c792061646d696e00000000000000000000000000000000000000000000604082015260600190565b60208082526021908201527f6d73672e73656e646572206d757374206f776e2074686520322066616e746f6d60408201527f7300000000000000000000000000000000000000000000000000000000000000606082015260800190565b60208082526018908201527f54686520322066616e746f6d73206d7573742065786973740000000000000000604082015260600190565b90815260200190565b9384526020840192909252604083015260608201526080019056fe726563697069656e742053432063616e6e6f742068616e646c652045524337323120746f6b656e73a2646970667358221220524aa7c21ed49b58bbd228bc9c143746bbe4c6126c1303daeeb6150d1756713e64736f6c63430007060033",
  "immutableReferences": {},
  "source": "pragma solidity ^0.7.3;\npragma experimental ABIEncoderV2;\n\nimport './ERC721Token.sol';\n\ncontract CryptoFantom is ERC721Token {\n    struct Fantom {\n        uint id;\n        uint generation;\n        uint geneA;\n        uint geneB;\n    }\n    mapping(uint => Fantom) public fantoms;\n    uint public nextId;\n    address public admin;\n\n    constructor(\n        string memory _tokenURIBase\n    ) ERC721Token( _tokenURIBase) public {\n        admin = msg.sender;\n    }\n\n    function getAllFantoms() external view returns(Fantom[] memory) {\n      Fantom[] memory _fantoms = new Fantom[](nextId);\n      for(uint i = 0; i < _fantoms.length; i++) {\n        _fantoms[i] = fantoms[i];\n      }\n      return _fantoms;\n    }\n\n    function getAllFantomsOf(address owner) external view returns(Fantom[] memory) {\n      uint length;\n      for(uint i = 0; i < nextId; i++) {\n        if(ownerOf(i) == owner) {\n          length++;\n        }\n      }\n      Fantom[] memory _fantoms = new Fantom[](length);\n      for(uint i = 0; i < _fantoms.length; i++) {\n        if(ownerOf(i) == owner) {\n          _fantoms[i] = fantoms[i];\n        }\n      }\n      return _fantoms;\n    }\n\n    function breed(uint fantom1Id, uint fantom2Id) external {\n        require(fantom1Id < nextId && fantom2Id < nextId, 'The 2 fantoms must exist');\n        Fantom storage fantom1 = fantoms[fantom1Id];\n        Fantom storage fantom2 = fantoms[fantom2Id];\n        require(ownerOf(fantom1Id) == msg.sender && ownerOf(fantom2Id) == msg.sender, 'msg.sender must own the 2 fantoms');\n        uint baseGen = fantom1.generation > fantom2.generation ? fantom1.generation : fantom2.generation;\n        uint geneA = _random(4) > 1 ? fantom1.geneA : fantom2.geneA;\n        uint geneB = _random(4) > 1 ? fantom1.geneB : fantom2.geneB;\n        fantoms[nextId] = Fantom(nextId, baseGen + 1, geneA ,geneB) ;\n        _mint(msg.sender, nextId);\n        nextId++;\n    }\n\n    function mint() external {\n        require(msg.sender == admin, 'only admin');\n        fantoms[nextId] = Fantom(nextId, 1, _random(10), _random(10));\n        _mint(msg.sender, nextId);\n        nextId++;\n    }\n\n    function _random(uint max) internal view returns(uint) {\n        return uint(keccak256(abi.encodePacked(block.timestamp, block.difficulty))) % max;\n    }\n}\n",
  "sourcePath": "/Users/adam/WebstormProjects/crypto-fantom-game/contracts/CryptoFantom.sol",
  "compiler": {
    "name": "solc",
    "version": "0.7.6+commit.7338295f.Emscripten.clang"
  },
  "schemaVersion": "3.3.2",
  "updatedAt": "2020-12-19T17:33:38.459Z",
  "networkType": "ethereum",
  "devdoc": {
    "kind": "dev",
    "methods": {
      "approve(address,uint256)": {
        "details": "The zero address indicates there is no approved address.  Throws unless `msg.sender` is the current NFT owner, or an authorized  operator of the current owner.",
        "params": {
          "_approved": "The new approved NFT controller",
          "_tokenId": "The NFT to approve"
        }
      },
      "balanceOf(address)": {
        "details": "NFTs assigned to the zero address are considered invalid, and this  function throws for queries about the zero address.",
        "params": {
          "_owner": "An address for whom to query the balance"
        },
        "returns": {
          "_0": "The number of NFTs owned by `_owner`, possibly zero"
        }
      },
      "getApproved(uint256)": {
        "details": "Throws if `_tokenId` is not a valid NFT.",
        "params": {
          "_tokenId": "The NFT to find the approved address for"
        },
        "returns": {
          "_0": "The approved address for this NFT, or the zero address if there is none"
        }
      },
      "isApprovedForAll(address,address)": {
        "params": {
          "_operator": "The address that acts on behalf of the owner",
          "_owner": "The address that owns the NFTs"
        },
        "returns": {
          "_0": "True if `_operator` is an approved operator for `_owner`, false otherwise"
        }
      },
      "ownerOf(uint256)": {
        "details": "NFTs assigned to zero address are considered invalid, and queries  about them do throw.",
        "params": {
          "_tokenId": "The identifier for an NFT"
        },
        "returns": {
          "_0": "The address of the owner of the NFT"
        }
      },
      "safeTransferFrom(address,address,uint256)": {
        "details": "This works identically to the other function with an extra data parameter,  except this function just sets data to \"\".",
        "params": {
          "_from": "The current owner of the NFT",
          "_to": "The new owner",
          "_tokenId": "The NFT to transfer"
        }
      },
      "safeTransferFrom(address,address,uint256,bytes)": {
        "details": "Throws unless `msg.sender` is the current owner, an authorized  operator, or the approved address for this NFT. Throws if `_from` is  not the current owner. Throws if `_to` is the zero address. Throws if  `_tokenId` is not a valid NFT. When transfer is complete, this function  checks if `_to` is a smart contract (code size > 0). If so, it calls  `onERC721Received` on `_to` and throws if the return value is not  `bytes4(keccak256(\"onERC721Received(address,address,uint256,bytes)\"))`.",
        "params": {
          "_from": "The current owner of the NFT",
          "_to": "The new owner",
          "_tokenId": "The NFT to transfer",
          "data": "Additional data with no specified format, sent in call to `_to`"
        }
      },
      "setApprovalForAll(address,bool)": {
        "details": "Emits the ApprovalForAll event. The contract MUST allow  multiple operators per owner.",
        "params": {
          "_approved": "True if the operator is approved, false to revoke approval",
          "_operator": "Address to add to the set of authorized operators"
        }
      },
      "transferFrom(address,address,uint256)": {
        "details": "Throws unless `msg.sender` is the current owner, an authorized  operator, or the approved address for this NFT. Throws if `_from` is  not the current owner. Throws if `_to` is the zero address. Throws if  `_tokenId` is not a valid NFT.",
        "params": {
          "_from": "The current owner of the NFT",
          "_to": "The new owner",
          "_tokenId": "The NFT to transfer"
        }
      }
    },
    "version": 1
  },
  "userdoc": {
    "kind": "user",
    "methods": {
      "approve(address,uint256)": {
        "notice": "Change or reaffirm the approved address for an NFT"
      },
      "balanceOf(address)": {
        "notice": "Count all NFTs assigned to an owner"
      },
      "getApproved(uint256)": {
        "notice": "Get the approved address for a single NFT"
      },
      "isApprovedForAll(address,address)": {
        "notice": "Query if an address is an authorized operator for another address"
      },
      "ownerOf(uint256)": {
        "notice": "Find the owner of an NFT"
      },
      "safeTransferFrom(address,address,uint256)": {
        "notice": "Transfers the ownership of an NFT from one address to another address"
      },
      "safeTransferFrom(address,address,uint256,bytes)": {
        "notice": "Transfers the ownership of an NFT from one address to another address"
      },
      "setApprovalForAll(address,bool)": {
        "notice": "Enable or disable approval for a third party (\"operator\") to manage  all of `msg.sender`'s assets"
      },
      "transferFrom(address,address,uint256)": {
        "notice": "Transfer ownership of an NFT -- THE CALLER IS RESPONSIBLE  TO CONFIRM THAT `_to` IS CAPABLE OF RECEIVING NFTS OR ELSE  THEY MAY BE PERMANENTLY LOST"
      }
    },
    "version": 1
  }
}